:020000040800F2
:1000000000000220C1D50008518100085F8100086E
:10001000658100086B810008718100080000000004
:10002000000000000000000000000000F142000895
:10003000778100080000000031450008994500085C
:1000400011D6000811D6000811D6000885810008D5
:1000500011D6000811D6000811D6000811D60008E4
:100060009981000811D60008A781000811D6000860
:1000700011D6000811D6000811D6000811D60008C4
:1000800011D6000811D6000811D6000811D60008B4
:1000900011D6000811D6000811D6000811D60008A4
:1000A00011D6000811D6000811D6000811D6000894
:1000B00011D6000811D6000811D6000811D6000884
:1000C00011D6000811D6000811D6000811D6000874
:1000D00011D60008B581000811D6000811D6000815
:1000E00011D6000811D6000811D6000811D6000854
:1000F00011D6000811D6000811D6000811D6000844
:1001000011D6000811D6000811D6000811D6000833
:1001100011D6000811D60008CD81000811D60008BC
:1001200011D6000811D6000811D6000811D6000813
:1001300011D6000811D6000811D6000811D6000803
:1001400011D6000811D6000811D6000811D60008F3
:1001500011D6000811D6000811D6000811D60008E3
:1001600011D6000811D6000811D6000811D60008D3
:1001700011D6000811D6000811D6000800000000B2
:0801800011D6000811D6000899
:1001900010B5054C237833B9044B13B10448AFF3C1
:1001A00000800123237010BDF8060020000000002D
:1001B0003827010808B5034B1BB103490348AFF3C7
:1001C000008008BD00000000FC0600203827010860
:1001D000034613F8012B002AFBD1181A0138704787
:1001E00001F0FF01102A2BDB10F0070F08D010F8E8
:1001F000013B013A8B422DD010F0070F42B3F6D1EC
:10020000F0B441EA012141EA014122F007047FF004
:1002100000070023F0E80256083C85EA010586EA5B
:10022000010685FA47F5A3FA87F586FA47F6A5FA97
:1002300087F68EB9EED1F0BC01F0FF0102F00702A3
:1002400032B110F8013B013A83EA010313B1F8D14E
:100250000020704701387047002D06BF354603382F
:10026000073815F0010F07D1013015F4807F02BF68
:10027000013015F4C03F0130F0BC0138704700BFB9
:1002800081F0004102E000BF83F0004330B54FEA47
:1002900041044FEA430594EA050F08BF90EA020FB4
:1002A0001FBF54EA000C55EA020C7FEA645C7FEA47
:1002B000655C00F0E2804FEA5454D4EB5555B8BF6A
:1002C0006D420CDD2C4480EA020281EA030382EADB
:1002D000000083EA010180EA020281EA0303362D6D
:1002E00088BF30BD11F0004F4FEA01314FF4801C40
:1002F0004CEA113102D0404261EB410113F0004F52
:100300004FEA03334CEA133302D0524263EB430308
:1003100094EA050F00F0A780A4F10104D5F1200EA6
:100320000DDB02FA0EFC22FA05F2801841F1000101
:1003300003FA0EF2801843FA05F359410EE0A5F1D5
:1003400020050EF1200E012A03FA0EFC28BF4CF006
:10035000020C43FA05F3C01851EBE37101F00045BC
:1003600007D54FF0000EDCF1000C7EEB00006EEBC9
:100370000101B1F5801F1BD3B1F5001F0CD3490853
:100380005FEA30004FEA3C0C04F101044FEA4452AA
:1003900012F5800F80F09A80BCF1004F08BF5FEA31
:1003A000500C50F1000041EB045141EA050130BD11
:1003B0005FEA4C0C404141EB010111F4801FA4F1B4
:1003C0000104E9D191F0000F04BF01460020B1FA09
:1003D00081F308BF2033A3F10B03B3F120020CDA41
:1003E0000C3208DD02F1140CC2F10C0201FA0CF01F
:1003F00021FA02F10CE002F11402D8BFC2F1200C84
:1004000001FA02F120FA0CFCDCBF41EA0C01904039
:10041000E41AA2BF01EB0451294330BD6FEA040482
:100420001F3C1CDA0C340EDC04F11404C4F120026D
:1004300020FA04F001FA02F340EA030021FA04F37F
:1004400045EA030130BDC4F10C04C4F1200220FAD6
:1004500002F001FA04F340EA0300294630BD21FA14
:1004600004F0294630BD94F0000F83F4801306BFDA
:1004700081F480110134013D4EE77FEA645C18BFCE
:100480007FEA655C29D094EA050F08BF90EA020F65
:1004900005D054EA000C04BF1946104630BD91EA5D
:1004A000030F1EBF0021002030BD5FEA545C05D160
:1004B0004000494128BF41F0004130BD14F580049F
:1004C0003CBF01F5801130BD01F0004545F0FE4113
:1004D00041F470014FF0000030BD7FEA645C1ABF48
:1004E000194610467FEA655C1CBF0B46024650EA7F
:1004F000013406BF52EA033591EA030F41F40021AB
:1005000030BD00BF90F0000F04BF0021704730B530
:100510004FF4806404F132044FF000054FF0000105
:1005200050E700BF90F0000F04BF0021704730B5C6
:100530004FF4806404F1320410F0004548BF40429B
:100540004FF000013EE700BF42004FEAE2014FEAF0
:1005500031014FEA02701FBF12F07F4393F07F4FCB
:1005600081F06051704792F0000F14BF93F07F4FFD
:10057000704730B54FF4607401F0004521F0004140
:1005800020E700BF50EA010208BF704730B54FF0C6
:1005900000050AE050EA010208BF704730B511F0CB
:1005A000004502D5404261EB41014FF4806404F103
:1005B00032045FEA915C3FF4DCAE4FF003025FEA85
:1005C000DC0C18BF03325FEADC0C18BF033202EB0D
:1005D000DC02C2F1200300FA03FC20FA02F001FA67
:1005E00003FE40EA0E0021FA02F11444C1E600BF06
:1005F00070B54FF0FF0C4CF4E06C1CEA11541DBFB9
:100600001CEA135594EA0C0F95EA0C0F00F0DEF883
:100610002C4481EA030621EA4C5123EA4C5350EA68
:10062000013518BF52EA033541F4801143F48013B9
:1006300038D0A0FB02CE4FF00005E1FB02E506F04A
:100640000042E0FB03E54FF00006E1FB03569CF09F
:10065000000F18BF4EF0010EA4F1FF04B6F5007FA5
:1006600064F5407404D25FEA4E0E6D4146EB060617
:1006700042EAC62141EA55514FEAC52040EA5E50A0
:100680004FEACE2EB4F1FD0C88BFBCF5E06F1ED84A
:10069000BEF1004F08BF5FEA500E50F1000041EB81
:1006A000045170BD06F0004646EA010140EA02002E
:1006B00081EA0301B4EB5C04C2BFD4EB0C0541EA50
:1006C000045170BD41F480114FF0000E013C00F365
:1006D000AB8014F1360FDEBF002001F0004170BD89
:1006E000C4F10004203C35DA0C341BDC04F11404A2
:1006F000C4F1200500FA05F320FA04F001FA05F22E
:1007000040EA020001F0004221F0004110EBD370FA
:1007100021FA04F642EB06015EEA430E08BF20EA26
:10072000D37070BDC4F10C04C4F1200500FA04F3C9
:1007300020FA05F001FA04F240EA020001F000415B
:1007400010EBD37041F100015EEA430E08BF20EACE
:10075000D37070BDC4F1200500FA05F24EEA020E16
:1007600020FA04F301FA05F243EA020321FA04F045
:1007700001F0004121FA04F220EA020000EBD370FC
:100780005EEA430E08BF20EAD37070BD94F0000FFC
:100790000FD101F00046400041EB010111F4801F30
:1007A00008BF013CF7D041EA060195F0000F18BFE1
:1007B000704703F00046520043EB030313F4801F1D
:1007C00008BF013DF7D043EA0603704794EA0C0FD7
:1007D0000CEA135518BF95EA0C0F0CD050EA4106ED
:1007E00018BF52EA4306D1D181EA030101F000416A
:1007F0004FF0000070BD50EA410606BF1046194692
:1008000052EA430619D094EA0C0F02D150EA01369D
:1008100013D195EA0C0F05D152EA03361CBF1046DE
:1008200019460AD181EA030101F0004141F0FE417D
:1008300041F470014FF0000070BD41F0FE4141F401
:10084000780170BD70B54FF0FF0C4CF4E06C1CEA01
:1008500011541DBF1CEA135594EA0C0F95EA0C0FB6
:1008600000F0A7F8A4EB050481EA030E52EA033571
:100870004FEA013100F088804FEA03334FF0805592
:1008800045EA131343EA12634FEA022245EA1115BF
:1008900045EA10654FEA00260EF000419D4208BF70
:1008A000964244F1FD0404F5407402D25B084FEA1D
:1008B0003202B61A65EB03055B084FEA32024FF4C9
:1008C00080104FF4002CB6EB020E75EB030E22BF26
:1008D000B61A754640EA0C005B084FEA3202B6EBE6
:1008E000020E75EB030E22BFB61A754640EA5C0095
:1008F0005B084FEA3202B6EB020E75EB030E22BF25
:10090000B61A754640EA9C005B084FEA3202B6EB25
:10091000020E75EB030E22BFB61A754640EADC00E4
:1009200055EA060E18D04FEA051545EA16754FEA46
:1009300006164FEAC30343EA52734FEAC2025FEA64
:100940001C1CC0D111F4801F0BD141EA00014FF0F3
:1009500000004FF0004CB6E711F4801F04BF0143C4
:100960000020B4F1FD0C88BFBCF5E06F3FF6AFAEE0
:10097000B5EB030C04BFB6EB020C5FEA500C50F170
:10098000000041EB045170BD0EF0004E4EEA1131F3
:1009900014EB5C04C2BFD4EB0C0541EA045170BDFA
:1009A00041F480114FF0000E013C90E645EA060E3E
:1009B0008DE60CEA135594EA0C0F08BF95EA0C0F6C
:1009C0003FF43BAF94EA0C0F0AD150EA01347FF4B4
:1009D00034AF95EA0C0F7FF425AF104619462CE78B
:1009E00095EA0C0F06D152EA03353FF4FDAE1046EE
:1009F000194622E750EA410618BF52EA43067FF43F
:100A0000C5AE50EA41047FF40DAF52EA43057FF4CE
:100A1000EBAE12E74FF0FF3C06E000BF4FF0010CD9
:100A200002E000BF4FF0010C4DF804CD4FEA410C3D
:100A30007FEA6C5C4FEA430C18BF7FEA6C5C1BD00A
:100A400001B050EA410C0CBF52EA430C91EA030F8B
:100A500002BF90EA020F0020704710F1000F91EAE8
:100A6000030F58BF994208BF90422CBFD8176FEAB6
:100A7000E37040F0010070474FEA410C7FEA6C5C84
:100A800002D150EA013C07D14FEA430C7FEA6C5C8B
:100A9000D6D152EA033CD3D05DF8040B704700BFB7
:100AA0008446104662468C461946634600E000BF05
:100AB00001B5FFF7B7FF002848BF10F1000F01BDD7
:100AC0004DF808EDFFF7F4FF0CBF012000205DF8A2
:100AD00008FB00BF4DF808EDFFF7EAFF34BF012027
:100AE00000205DF808FB00BF4DF808EDFFF7E0FFC0
:100AF00094BF012000205DF808FB00BF4DF808ED11
:100B0000FFF7CEFF94BF012000205DF808FB00BF77
:100B10004DF808EDFFF7C4FF34BF012000205DF859
:100B200008FB00BF4FEA410C7FEA6C5C02D150EA3F
:100B3000013C0AD14FEA430C7FEA6C5C02D152EAD5
:100B4000033C02D14FF0000070474FF001007047A6
:100B50004FEA410212F5001215D211D56FF47873E5
:100B6000B3EB625212D94FEAC12343F0004343EA88
:100B7000505311F0004F23FA02F018BF4042704763
:100B80004FF00000704750EA013005D111F00040ED
:100B900008BF6FF0004070474FF00000704700BF83
:100BA0004FEA4102B2F1E04324BFB3F5001CDCF18F
:100BB000FE5C0DD901F0004C4FEAC0024CEA5070C7
:100BC000B2F1004F40EB830008BF20F001007047F6
:100BD00011F0804F21D113F13872BCBF01F00040F9
:100BE000704741F480114FEA5252C2F11802C2F12B
:100BF000200C10FA0CF320FA02F018BF40F00100AC
:100C00004FEAC1234FEAD32303FA0CFC40EA0C005D
:100C100023FA02F34FEA4303CCE77FEA625307D19A
:100C200050EA01331EBF4FF0FE4040F440007047D1
:100C300001F0004040F0FE4040F40000704700BF6B
:100C40007BB972B90029BEBF00204FF0004106E019
:100C500008BF00281CBF6FF000414FF0FF3000F0CC
:100C6000C5B9ADF1080C6DE904CE002909DB002BF4
:100C70001ADB00F04DF8DDF804E0DDE9022304B0F2
:100C80007047404261EB4101002B1BDB00F040F854
:100C9000DDF804E0DDE9022304B0404261EB4101EC
:100CA000524263EB43037047524263EB430300F04D
:100CB0002FF8DDF804E0DDE9022304B0404261EBE7
:100CC00041017047524263EB430300F021F8DDF825
:100CD00004E0DDE9022304B0524263EB43037047B2
:100CE00053B94AB9002908BF00281CBF4FF0FF3193
:100CF0004FF0FF3000F07AB9ADF1080C6DE904CE89
:100D000000F006F8DDF804E0DDE9022304B07047E6
:100D10002DE9F0478C460D460446089E002B51D124
:100D20008A4217466DD9B2FA82FEBEF1000F0BD08F
:100D3000CEF1200C01FA0EF520FA0CFC02FA0EF7A7
:100D40004CEA050C00FA0EF44FEA174A250CBCFBDE
:100D5000FAF81FFA87F90AFB18CC45EA0C4508FB9C
:100D600009F3AB420AD9ED1908F1FF3280F0238173
:100D7000AB4240F22081A8F102083D44ED1AA4B232
:100D8000B5FBFAF00AFB105544EA054400FB09F9EB
:100D9000A14509D9E41900F1FF3380F00A81A1458A
:100DA00040F2078102383C44A4EB090440EA0840C1
:100DB0000021002E61D024FA0EF400233460736009
:100DC000BDE8F0878B4207D9002E54D0002186E879
:100DD00021000846BDE8F087B3FA83F1002940F00E
:100DE0008E80AB4202D3824200F2FA80841A65EB15
:100DF00003050120AC46002E3FD086E81010BDE868
:100E0000F08712B90127B7FBF2F7B7FA87FEBEF1F8
:100E1000000F34D1EB1B3A0C1FFA87FC0121B3FB06
:100E2000F2F8250C02FB183345EA03450CFB08F3E6
:100E3000AB4207D9ED1908F1FF3002D2AB4200F204
:100E4000D1808046ED1AA3B2B5FBF2F002FB10553B
:100E500043EA05440CFB00FCA44507D9E41900F162
:100E6000FF3302D2A44500F2B8801846A4EB0C046C
:100E700040EA08409DE731463046BDE8F087CEF1B4
:100E8000200405FA0EF307FA0EF720FA04F83A0CDC
:100E900025FA04F448EA0308B4FBF2F14FEA1845D6
:100EA00002FB11441FFA87FC45EA044501FB0CF3E1
:100EB000AB4200FA0EF409D9ED1901F1FF3080F0D0
:100EC0008A80AB4240F2878002393D44EB1A1FFA18
:100ED00088F5B3FBF2F002FB103345EA034500FB53
:100EE0000CF3AB4207D9ED1900F1FF386FD2AB42DA
:100EF0006DD902383D44EB1A40EA01418FE7C1F158
:100F0000200722FA07F88B4005FA01F448EA0303A8
:100F100020FA07FE4FEA134CFD404EEA040EB5FBE3
:100F2000FCF94FEA1E440CFB19551FFA83F844EAFA
:100F3000054509FB08F4AC4202FA01F200FA01FA95
:100F400008D9ED1809F1FF3043D2AC4241D9A9F1DB
:100F500002091D442D1B1FFA8EFEB5FBFCF00CFB95
:100F600010554EEA054400FB08F8A04507D9E418DF
:100F700000F1FF3529D2A04527D902381C4440EAA8
:100F80000940A4EB0804A0FB02894C45C6464D4627
:100F900015D312D056B1BAEB0E0364EB050404FA74
:100FA00007F7CB401F43CC40376074600021BDE899
:100FB000F0871846F8E69046E0E6C245EAD2B8EB7C
:100FC000020E69EB03050138E4E72846D7E74046FF
:100FD00091E78146BEE7014678E702383C4445E7A1
:100FE000084608E7A8F102083D442BE7704700BF18
:100FF00080B500AF0E4A0E4B1B6843F400731360BC
:101000000B4A0B4B1B6843F480631360084A084B80
:101010001B6843F480731360032000F0F8F800208D
:1010200007F03CF807F00EF80023184680BD00BF1B
:10103000003C024080B400AF064B1B781A46064BBA
:101040001B681344044A136000BFBD465DF8047B6F
:10105000704700BF000000208050002080B400AF27
:10106000034B1B681846BD465DF8047B704700BF04
:101070008050002080B584B000AF7860FFF7EEFFAD
:10108000B8607B68FB60FB68B3F1FF3F05D0094B9C
:101090001B781A46FB681344FB6000BFFFF7DEFFB6
:1010A0000246BB68D21AFB689A42F7D300BF1037DA
:1010B000BD4680BD0000002080B485B000AF7860E0
:1010C0007B6803F00703FB600C4BDB68BB60BA680E
:1010D0004FF6FF031340BB60FB681A02BB68134363
:1010E00043F0BF6343F40033BB60044ABB68D36082
:1010F00000BF1437BD465DF8047B704700ED00E08B
:1011000080B400AF044BDB681B0A03F007031846EA
:10111000BD465DF8047B704700ED00E080B483B00D
:1011200000AF0346FB7197F90730002B0BDB094931
:1011300097F907305B09FA7902F01F02012000FAE3
:1011400002F241F8232000BF0C37BD465DF8047B56
:10115000704700BF00E100E080B483B000AF0346F9
:101160003960FB7197F90730002B0ADB0D4997F9BD
:1011700007303A68D2B21201D2B20B4483F800238E
:101180000AE00949FB7903F00F03043B3A68D2B245
:101190001201D2B20B441A7600BF0C37BD465DF87F
:1011A000047B704700E100E000ED00E080B489B00E
:1011B00000AFF860B9607A60FB6803F00703FB6179
:1011C000FB69C3F10703042B28BF0423BB61FB6940
:1011D0000433062B02D9FB69033B00E000237B614B
:1011E0000122BB6902FA03F35A1EBB681A407B69ED
:1011F0009A4001217B6901FA03F3591E7B680B4079
:10120000134318462437BD465DF8047B704780B50C
:1012100082B000AF78607868FFF74EFF00BF0837F4
:10122000BD4680BD80B586B000AF0346B9607A6028
:10123000FB7300237B61FFF763FF78617A68B9680D
:101240007869FFF7B3FF024697F90F301146184649
:10125000FFF782FF00BF1837BD4680BD80B582B062
:1012600000AF0346FB7197F907301846FFF756FFAA
:1012700000BF0837BD4680BD80B483B000AF786042
:101280007B68042B06D1094A084B1B6843F0040312
:10129000136005E0054A054B1B6823F00403136047
:1012A00000BF0C37BD465DF8047B704710E000E0DE
:1012B00080B483B000AF78607B6893F83530DBB2E0
:1012C000022B04D07B6880225A6501230CE07B68E6
:1012D000052283F835207B681B687A6812681268DB
:1012E00022F001021A60002318460C37BD465DF853
:1012F000047B704780B489B000AF78603960002308
:101300007B6100233B610023BB610023FB616BE138
:101310000122FB6902FA03F37B613B681A687B696F
:1013200013403B613A697B699A4240F05A813B68BD
:101330005B68022B03D03B685B68122B23D1FB69EF
:10134000DA087B68083253F82230BB61FB6903F08E
:1013500007039B000F2202FA03F3DB43BA69134031
:10136000BB613B681A69FB6903F007039B0002FA43
:1013700003F3BA691343BB61FB69DA087B6808327F
:10138000B96943F822107B681B68BB61FB695B008D
:10139000032202FA03F3DB43BA691340BB613B68E3
:1013A0005B6803F00302FB695B0002FA03F3BA69AE
:1013B0001343BB617B68BA691A603B685B68012BA9
:1013C0000BD03B685B68022B07D03B685B68112B36
:1013D00003D03B685B68122B30D17B689B68BB6194
:1013E000FB695B00032202FA03F3DB43BA69134093
:1013F000BB613B68DA68FB695B0002FA03F3BA6918
:101400001343BB617B68BA699A607B685B68BB61A8
:101410000122FB6902FA03F3DB43BA691340BB61A3
:101420003B685B681B0903F00102FB6902FA03F3E6
:10143000BA691343BB617B68BA695A607B68DB6831
:10144000BB61FB695B00032202FA03F3DB43BA6969
:101450001340BB613B689A68FB695B0002FA03F3C7
:10146000BA691343BB617B68BA69DA603B685B6841
:1014700003F08053002B00F0B4800023FB605F4A30
:101480005E4B5B6C43F4804353645C4B5B6C03F4D6
:101490008043FB60FB685A4AFB699B08023352F8A1
:1014A0002330BB61FB6903F003039B000F2202FAA8
:1014B00003F3DB43BA691340BB617B68514A934233
:1014C0002BD07B68504A934225D07B684F4A934289
:1014D0001FD07B684E4A934219D07B684D4A934295
:1014E00013D07B684C4A93420DD07B684B4A9342A1
:1014F00007D07B684A4A934201D107230EE00823B4
:101500000CE006230AE0052308E0042306E0032399
:1015100004E0022302E0012300E00023FA6902F064
:10152000030292009340BA691343BB613449FB69DB
:101530009B080233BA6941F823203A4B1B68BB6110
:101540003B69DB43BA691340BB613B685B6803F4EA
:101550008033002B03D0BA693B691343BB61314A26
:10156000BB6913602F4B5B68BB613B69DB43BA69A6
:101570001340BB613B685B6803F40033002B03D06E
:10158000BA693B691343BB61264ABB695360254B6B
:101590009B68BB613B69DB43BA691340BB613B6835
:1015A0005B6803F48013002B03D0BA693B691343D3
:1015B000BB611C4ABB6993601A4BDB68BB613B692A
:1015C000DB43BA691340BB613B685B6803F40013FB
:1015D000002B03D0BA693B691343BB61114ABB6955
:1015E000D360FB690133FB61FB690F2B7FF690AE83
:1015F00000BF2437BD465DF8047B704700380240C9
:10160000003801400000024000040240000802408F
:10161000000C02400010024000140240001802407A
:10162000001C0240003C014080B483B000AF7860F1
:101630000B467B8013467B707B78002B03D07A8827
:101640007B689A6103E07B881A047B689A6100BF1B
:101650000C37BD465DF8047B704780B483B000AFA3
:1016600078600B467B807B685A697B881A407B8850
:101670009A4204D17B881A047B689A6102E07A88D6
:101680007B689A6100BF0C37BD465DF8047B7047EC
:1016900080B582B000AF0346FB80084B5A69FB88D7
:1016A0001340002B06D0054AFB885361FB8818467F
:1016B00006F080F800BF0837BD4680BD003C014001
:1016C00080B586B000AF78607B68002B01D1012324
:1016D0002DE27B681B6803F00103002B75D0A34B40
:1016E0009B6803F00C03042B0CD0A04B9B6803F009
:1016F0000C03082B12D19D4B5B6803F48003B3F5F8
:10170000800F0BD1994B1B6803F40033002B5BD087
:101710007B685B68002B57D1012308E27B685B681C
:10172000B3F5803F06D1914A904B1B6843F4803358
:1017300013601DE07B685B68B3F5A02F0CD18B4A6A
:101740008A4B1B6843F480231360884A874B1B68CD
:1017500043F4803313600BE0844A844B1B6823F40A
:1017600080331360814A814B1B6823F4802313600C
:101770007B685B68002B13D0FFF770FC386108E0D2
:10178000FFF76CFC02463B69D31A642B01D9032393
:10179000CDE1764B1B6803F40033002BF0D014E04E
:1017A000FFF75CFC386108E0FFF758FC02463B6934
:1017B000D31A642B01D90323B9E16C4B1B6803F4E2
:1017C0000033002BF0D100E000BF7B681B6803F002
:1017D0000203002B63D0654B9B6803F00C03002BC6
:1017E0000BD0624B9B6803F00C03082B1CD15F4BA2
:1017F0005B6803F48003002B16D15C4B1B6803F07D
:101800000203002B05D07B68DB68012B01D001238C
:101810008DE15649554B1B6823F0F8027B681B6924
:10182000DB0013430B603AE07B68DB68002B20D0C1
:101830004F4B01221A60FFF711FC386108E0FFF7F7
:101840000DFC02463B69D31A022B01D903236EE13A
:10185000464B1B6803F00203002BF0D04349434B77
:101860001B6823F0F8027B681B69DB0013430B60E5
:1018700015E03F4B00221A60FFF7F0FB386108E0EB
:10188000FFF7ECFB02463B69D31A022B01D9032375
:101890004DE1364B1B6803F00203002BF0D17B684F
:1018A0001B6803F00803002B30D07B685B69002BBA
:1018B00016D0304B01221A60FFF7D0FB386108E0E8
:1018C000FFF7CCFB02463B69D31A022B01D9032355
:1018D0002DE1264B5B6F03F00203002BF0D015E0E7
:1018E000244B00221A60FFF7B9FB386108E0FFF7CC
:1018F000B5FB02463B69D31A022B01D9032316E13B
:101900001A4B5B6F03F00203002BF0D17B681B685E
:1019100003F00403002B00F0A0800023FB75134BA1
:101920001B6C03F08053002B0FD10023FB600F4A88
:101930000E4B1B6C43F0805313640C4B1B6C03F079
:101940008053FB60FB680123FB750B4B1B6803F4A2
:101950008073002B21D1084A074B1B6843F4807326
:101960001360FFF77BFB386111E000BF00380240D5
:1019700000004742800E474200700040FFF76EFBB8
:1019800002463B69D31A022B01D90323CFE06A4BED
:101990001B6803F48073002BF0D07B689B68012BDD
:1019A00006D1664A654B1B6F43F0010313671CE0C9
:1019B0007B689B68052B0CD1604A604B1B6F43F022
:1019C000040313675D4A5D4B1B6F43F0010313670C
:1019D0000BE05A4A594B1B6F23F001031367574A18
:1019E000564B1B6F23F0040313677B689B68002B27
:1019F00015D0FFF733FB38610AE0FFF72FFB0246F3
:101A00003B69D31A41F28832934201D903238EE015
:101A10004A4B1B6F03F00203002BEED014E0FFF7DC
:101A20001DFB38610AE0FFF719FB02463B69D31A38
:101A300041F28832934201D9032378E03F4B1B6F78
:101A400003F00203002BEED1FB7D012B05D13B4AB5
:101A50003A4B1B6C23F0805313647B689B69002B0B
:101A600064D0364B9B6803F00C03082B5CD07B687A
:101A70009B69022B41D1324B00221A60FFF7EEFA2C
:101A8000386108E0FFF7EAFA02463B69D31A022BF5
:101A900001D903234BE0294B1B6803F00073002B93
:101AA000F0D126497B68DA697B681B6A1A437B6838
:101AB0005B6A9B011A437B689B6A5B08013B1B04C2
:101AC0001A437B68DB6A1B0613434B601C4B0122E5
:101AD0001A60FFF7C3FA386108E0FFF7BFFA024661
:101AE0003B69D31A022B01D9032320E0134B1B6857
:101AF00003F00073002BF0D018E0114B00221A60A5
:101B0000FFF7ACFA386108E0FFF7A8FA02463B6934
:101B1000D31A022B01D9032309E0084B1B6803F0F9
:101B20000073002BF0D101E0012300E000231846F0
:101B30001837BD4680BD00BF00700040003802402D
:101B40006000474280B584B000AF786039607B6840
:101B5000002B01D10123CAE0674B1B6803F00F0281
:101B60003B689A420CD2644B3A68D2B21A70624B0C
:101B70001B6803F00F023B689A4201D00123B6E0D4
:101B80007B681B6803F00203002B20D07B681B6876
:101B900003F00403002B05D0584A584B9B6843F4CC
:101BA000E05393607B681B6803F00803002B05D0AB
:101BB000524A524B9B6843F4604393604F494F4BEA
:101BC0009B6823F0F0027B689B6813438B607B6803
:101BD0001B6803F00103002B44D07B685B68012B7A
:101BE00007D1464B1B6803F40033002B19D10123A6
:101BF0007DE07B685B68022B03D07B685B68032B0E
:101C000007D13E4B1B6803F00073002B09D1012361
:101C10006DE03A4B1B6803F00203002B01D1012356
:101C200065E03649354B9B6823F003027B685B68AF
:101C300013438B60FFF712FAF8600AE0FFF70EFA21
:101C40000246FB68D31A41F28832934201D903233A
:101C50004DE02A4B9B6803F00C027B685B689B009D
:101C60009A42EBD1244B1B6803F00F023B689A4267
:101C70000CD9214B3A68D2B21A701F4B1B6803F083
:101C80000F023B689A4201D0012330E07B681B6859
:101C900003F00403002B08D01849184B9B6823F469
:101CA000E0527B68DB6813438B607B681B6803F042
:101CB0000803002B09D01149104B9B6823F46042A4
:101CC0007B681B69DB0013438B6000F085F80146DD
:101CD0000A4B9B681B0903F00F03094AD35C21FAE6
:101CE00003F3084A1360002006F0D8F900231846D1
:101CF0001037BD4680BD00BF003C024000380240A6
:101D0000DC2A01082000002080B58CB000AFF8600C
:101D1000B9607A60FB68002B29D10023BB612B4A94
:101D20002A4B1B6B43F001031363284B1B6B03F01F
:101D30000103BB61BB694FF48073FB6102233B620B
:101D40000323BB6200237B620023FB6207F11C03B9
:101D500019461F48FFF7CEFA1C481C4B9B6823F01E
:101D6000EC62B9687B680B431343836029E000236E
:101D70007B61164A154B1B6B43F004031363134B33
:101D80001B6B03F004037B617B694FF40073FB6101
:101D900002233B620323BB6200237B620023FB62BE
:101DA00007F11C0319460B48FFF7A4FA0748074B35
:101DB0009B6823F078427B68D900BB680B431343D0
:101DC000836000BF3037BD4680BD00BF0038024091
:101DD00000000240000802402DE9F04F8FB000AF34
:101DE0000023FB6200237B630023BB6200233B6371
:101DF000624B9B6803F00C03042B07D0082B08D020
:101E0000002B40F0B2805E4B3B63B1E05D4B3B6327
:101E1000AEE05A4B5B6803F03F03FB62574B5B68D5
:101E200003F48003002B4ED0544B5B689B094FF0AA
:101E3000000440F2FF114FF0000201EA030102EA40
:101E400004020B46144660017862786A40EAD36067
:101E500078625B013B62D7E908345B1A64EB0204E9
:101E60004FEA841949EA93694FEA8318B8EB0308EB
:101E700069EB04094FEAC903FB61FB6943EA587344
:101E8000FB614FEAC803BB61D7E9068918EB01087B
:101E900049EB02094FEA49237B617B6943EAD85346
:101EA0007B614FEA48233B61D7E9048940464946B4
:101EB000FB6A4FF000041A462346FEF711FF034663
:101EC0000C467B6343E02D4B5B689B094FF000049D
:101ED00040F2FF114FF0000201EA030102EA04029E
:101EE0000B4614466001F860F86840EAD360F86079
:101EF0005B01BB60D7E902345B1A64EB0204A60104
:101F000046EA93669D01ED1A66EB0406F3007B60DA
:101F10007B6843EA55737B60EB003B6097E86000A9
:101F20006D1846EB02064FEA862B4BEA955B4FEAAB
:101F3000852A55465E4628463146FB6A4FF0000426
:101F40001A462346FEF7CCFE03460C467B630B4B3A
:101F50005B681B0C03F0030301335B00BB627A6B0D
:101F6000BB6AB2FBF3F33B6302E0054B3B6300BF8C
:101F70003B6B18463C37BD46BDE8F08F0038024049
:101F80000024F40000127A0080B400AF034B1B68F9
:101F90001846BD465DF8047B704700BF2000002056
:101FA00080B500AFFFF7F0FF0146054B9B689B0A29
:101FB00003F00703034AD35C21FA03F3184680BDFC
:101FC00000380240EC2A010880B500AFFFF7DCFFC3
:101FD0000146054B9B685B0B03F00703034AD35C88
:101FE00021FA03F3184680BD00380240EC2A0108AC
:101FF00080B483B000AF786039607B680F221A60CC
:10200000124B9B6803F003027B685A600F4B9B687E
:1020100003F0F0027B689A600C4B9B6803F4E0527B
:102020007B68DA60094B9B68DB0803F4E0527B684D
:102030001A61074B1B6803F00F023B681A6000BF70
:102040000C37BD465DF8047B704700BF0038024086
:10205000003C024080B586B000AF786000237B6111
:1020600000233B617B681B6803F00103002B05D153
:102070007B681B6803F00403002B35D0624B002201
:102080001A60FEF7EBFF786108E0FEF7E7FF024613
:102090007B69D31A022B01D90323B0E05B4B1B6889
:1020A00003F00063002BF0D158497B685B689A010C
:1020B0007B689B681B071343C1F88430524B012295
:1020C0001A60FEF7CBFF786108E0FEF7C7FF024613
:1020D0007B69D31A022B01D9032390E04B4B1B6879
:1020E00003F00063002BF0D07B681B6803F0020351
:1020F000002B00F083800023FB60444A434B1B6CA1
:1021000043F080531364414B1B6C03F08053FB601E
:10211000FB683F4A3E4B1B6843F480731360FEF735
:102120009DFF786108E0FEF799FF02467B69D31AAC
:10213000022B01D9032362E0354B1B6803F4807343
:10214000002BF0D0314B1B6F03F440733B613B69B4
:10215000002B2FD07B68DB6803F440723B699A4206
:1021600028D02A4B1B6F23F440733B61294B01227B
:102170001A60284B00221A60244A3B691367234BDC
:102180001B6F03F00103012B14D1FEF767FF786189
:102190000AE0FEF763FF02467B69D31A41F28832F8
:1021A000934201D903232AE0184B1B6F03F002036B
:1021B000002BEED07B68DB6803F44073B3F5407FFF
:1021C0000DD11249114B9B6823F4F8127B68DB6830
:1021D00023F0704323F4407313438B6005E00B4AF4
:1021E0000A4B9B6823F4F81393600849074B1A6F56
:1021F0007B68DB68C3F30B0313430B6700231846AC
:102200001837BD4680BD00BF680047420038024015
:1022100000700040400E474280B582B000AF786049
:102220007B68002B01D1012383E07B685B7FDBB2FD
:10223000002B05D17B6800221A77786805F09EFD97
:102240007B6802225A777B681B68CA225A627B68C5
:102250001B6853225A62786800F0A8FA0346002BE4
:1022600008D07B681B68FF225A627B6804225A7779
:1022700001235EE07B681A687B681B689B6823F417
:10228000E00323F0400393607B681B687A68126860
:1022900091687A6850687A68126910437A6852695E
:1022A00002430A439A607B681B687A68D2681A61A5
:1022B0007B681B687A68126811697A6892681204F0
:1022C0000A431A617B681B687A681268D26822F038
:1022D0008002DA607B681B689B6803F02003002B98
:1022E0000ED1786800F03AFA0346002B08D07B68DC
:1022F0001B68FF225A627B6804225A77012318E088
:102300007B681B687A681268126C22F480221A6457
:102310007B681B687A681268116C7A6892690A4354
:102320001A647B681B68FF225A627B6801225A7715
:10233000002318460837BD4680BD90B587B000AF72
:10234000F860B9607A6000237B61FB681B7F012B1A
:1023500001D10223AAE0FB6801221A77FB6802225E
:102360005A777B68002B26D1FB681B689B6803F0BB
:102370004003002B02D1BB680022DA70BB681B78D7
:10238000184600F03FFA03461C04BB685B78184609
:1023900000F038FA03461B021C43BB689B781846C2
:1023A00000F030FA034644EA0302BB68DB781B0402
:1023B00013437B6118E0FB681B689B6803F04003D4
:1023C000002B02D1BB680022DA70BB681B781A04AC
:1023D000BB685B781B021343BA6892781A43BB68E8
:1023E000DB781B0413437B61FB681B68CA225A62BB
:1023F000FB681B6853225A62F86800F0D7F903465D
:10240000002B0BD0FB681B68FF225A62FB6804227A
:102410005A77FB6800221A77012347E0FB681A68A5
:102420007B6903F07F3323F0FE431360FB681B6876
:10243000FA681268926822F480229A60FB681B682E
:10244000FA6812689168BA68D068BA68126902437B
:102450000A439A60FB681B68FA681268D26822F027
:102460008002DA60FB681B689B6803F02003002B86
:1024700011D1F86800F072F90346002B0BD0FB680D
:102480001B68FF225A62FB6804225A77FB6800220D
:102490001A7701230AE0FB681B68FF225A62FB6877
:1024A00001225A77FB6800221A77002318461C374E
:1024B000BD4690BD80B586B000AFF860B9607A6067
:1024C00000237B61FB681B689A6ABB685A60FB68E3
:1024D0001B681B69C3F30E02BB689A60FB681B682C
:1024E0001B6803F07F3323F0FE437B617B691B0C89
:1024F000DBB203F03F03DAB2BB681A707B691B0AD8
:10250000DBB203F07F03DAB2BB685A707B69DBB2DF
:1025100003F07F03DAB2BB689A707B691B0CDBB2F5
:1025200003F04003DAB2BB68DA707B68002B1AD183
:10253000BB681B78184600F083F903461A46BB684F
:102540001A70BB685B78184600F07AF903461A46A1
:10255000BB685A70BB689B78184600F071F9034657
:102560001A46BB689A70002318461837BD4680BDCE
:1025700090B587B000AFF860B9607A6000237B61E6
:10258000FB681B7F012B01D1022394E0FB68012231
:102590001A77FB6802225A777B68002B0ED1BB6842
:1025A0005B7803F01003002B08D0BB685B7823F046
:1025B0001003DBB20A33DAB2BB685A707B68002BB7
:1025C0001CD1BB68DB78184600F01CF903461C04DC
:1025D000BB685B78184600F015F903461B021C43E4
:1025E000BB689B78184600F00DF9034644EA0302E5
:1025F000BB681B785B0313437B610EE0BB68DB7831
:102600001A04BB685B781B021343BA6892781A43BA
:10261000BB681B785B0313437B61FB681B68CA22A2
:102620005A62FB681B6853225A62F86800F0BEF8D1
:102630000346002B0BD0FB681B68FF225A62FB6825
:1026400004225A77FB6800221A77012333E0FB68E3
:102650001A687B6923F07F4323F0C0035360FB6853
:102660001B68FA681268D26822F08002DA60FB68A0
:102670001B689B6803F02003002B11D1F86800F061
:102680006DF80346002B0BD0FB681B68FF225A62D3
:10269000FB6804225A77FB6800221A7701230AE0BC
:1026A000FB681B68FF225A62FB6801225A77FB68AD
:1026B00000221A77002318461C37BD4690BD80B50E
:1026C00086B000AFF860B9607A6000237B61FB6878
:1026D0001B685B6823F07F4323F0C0037B617B6949
:1026E0001B0CDAB2BB68DA707B691B0ADBB203F041
:1026F0001F03DAB2BB685A707B69DBB203F03F0399
:10270000DAB2BB689A707B695B0BDBB203F007033C
:10271000DAB2BB681A707B68002B1AD1BB68DB7811
:10272000184600F08DF803461A46BB68DA70BB689D
:102730005B78184600F084F803461A46BB685A7066
:10274000BB689B78184600F07BF803461A46BB68C6
:102750009A70002318461837BD4680BD80B584B0F6
:1027600000AF78600023FB607B681B687A681268A2
:10277000D26822F0A002DA60FEF770FCF86009E08F
:10278000FEF76CFC0246FB68D31AB3F57A7F01D9D9
:10279000032307E07B681B68DB6803F02003002B42
:1027A000EED0002318461037BD4680BD80B584B0FA
:1027B00000AF78600023FB607B681B68DB6803F078
:1027C0004003002B19D17B681B684FF0FF32DA60A1
:1027D000FEF744FCF86009E0FEF740FC0246FB68A7
:1027E000D31AB3F57A7F01D9032307E07B681B680E
:1027F000DB6803F04003002BEED0002318461037AF
:10280000BD4680BD80B485B000AF0346FB71002398
:10281000FB6005E0FB680133FB60FB790A3BFB7161
:10282000FB79092BF6D8FB68DBB21B01DAB2FB7926
:102830001343DBB218461437BD465DF8047B70477E
:1028400080B485B000AF0346FB710023FB60FB79C9
:102850001B09DBB21A4613469B0013445B00FB6066
:10286000FB7903F00F03DAB2FB68DBB21344DBB28F
:1028700018461437BD465DF8047B704780B487B0B6
:1028800000AFF860B9607A60FB681B7F012B01D153
:102890000223A6E0FB6801221A77FB6802225A771E
:1028A000FB681B68CA225A62FB681B6853225A6283
:1028B000FB681B689B6803F48063002B22D04C4BA1
:1028C0001B684C4AA2FB0323DB0A4FF47A7202FB1B
:1028D00003F37B617B695A1E7A61002B0BD1FB6885
:1028E0001B68FF225A62FB6803225A77FB680022AA
:1028F0001A77032375E0FB681B68DB6803F00403A9
:10290000002BE7D1FB681B68FA681268926822F412
:1029100080629A60364B1B68364AA2FB0323DB0AAF
:102920004FF47A7202FB03F37B617B695A1E7A6172
:10293000002B0BD1FB681B68FF225A62FB68032245
:102940005A77FB6800221A7703234AE0FB681B686A
:10295000DB6803F00403002BE7D0FB681B68BA6850
:102960005A61FB681B68FA681268926822F00702D5
:102970009A60FB681B68FA68126891687A680A4373
:102980009A601D4A1C4B1B6843F4800313601A4A6B
:10299000194B9B6843F480039360FB681B68FA68DB
:1029A0001268D268D2B262F49062DA60FB681B6887
:1029B000FA681268926842F480429A60FB681B6869
:1029C000FA681268926842F480629A60FB681B6839
:1029D000FF225A62FB6801225A77FB6800221A77AD
:1029E000002318461C37BD465DF8047B704700BFC6
:1029F00020000020D34D6210003C014080B582B021
:102A000000AF78607B681B68DB6803F48063002B91
:102A100012D07B681B689B6803F48043002B0BD0AB
:102A2000786805F0C7F97B681B687A681268D26815
:102A3000D2B262F49062DA60054B4FF480025A61C0
:102A40007B6801225A7700BF0837BD4680BD00BFB2
:102A5000003C014080B584B000AFF860B9607A6096
:102A6000FB68002B01D1012334E0FB6893F8493067
:102A7000DBB2002B06D1FB68002283F84820F868FF
:102A800004F0AEFDFB681A68FB680833194610466F
:102A900001F066F8FB681868FB689B681A46B9681D
:102AA00001F0B0F8FB685868FB689A68FB681B6B1C
:102AB000796801F0E5F8FB681B68FA689268F968C4
:102AC0000968F868806851F8201041F0010143F866
:102AD0002210002318461037BD4680BD80B582B055
:102AE00000AF78607B68002B01D101231DE07B687B
:102AF00093F83D30DBB2002B06D17B68002283F8CF
:102B00003C20786800F015F87B68022283F83D20AD
:102B10007B681A687B6804331946104600F068F930
:102B20007B68012283F83D20002318460837BD4604
:102B300080BD80B483B000AF786000BF0C37BD4665
:102B40005DF8047B704780B485B000AF78607B6827
:102B50001B687A681268D26842F00102DA607B680A
:102B60001B689B6803F00703FB60FB68062B07D01C
:102B70007B681B687A681268126842F001021A606A
:102B8000002318461437BD465DF8047B704780B5B6
:102B900082B000AF78607B681B681B6903F002039A
:102BA000022B22D17B681B68DB6803F00203022B37
:102BB0001BD17B681B686FF002021A617B680122DF
:102BC0001A777B681B689B6903F00303002B03D013
:102BD000786800F0EEF805E0786800F0E0F87868D2
:102BE00000F0F1F87B6800221A777B681B681B698C
:102BF00003F00403042B22D17B681B68DB6803F01D
:102C00000403042B1BD17B681B686FF004021A615C
:102C10007B6802221A777B681B689B6903F4407308
:102C2000002B03D0786800F0C4F805E0786800F065
:102C3000B6F8786800F0C7F87B6800221A777B68DE
:102C40001B681B6903F00803082B22D17B681B68F3
:102C5000DB6803F00803082B1BD17B681B686FF04F
:102C600008021A617B6804221A777B681B68DB699B
:102C700003F00303002B03D0786800F09AF805E016
:102C8000786800F08CF8786800F09DF87B68002286
:102C90001A777B681B681B6903F01003102B22D185
:102CA0007B681B68DB6803F01003102B1BD17B686B
:102CB0001B686FF010021A617B6808221A777B6824
:102CC0001B68DB6903F44073002B03D0786800F0C5
:102CD00070F805E0786800F062F8786800F073F842
:102CE0007B6800221A777B681B681B6903F001036D
:102CF000012B0ED17B681B68DB6803F00103012BFD
:102D000007D17B681B686FF001021A61786804F0D4
:102D1000B7FF7B681B681B6903F08003802B0ED113
:102D20007B681B68DB6803F08003802B07D17B681E
:102D30001B686FF080021A61786800F003F97B6805
:102D40001B681B6903F04003402B0ED17B681B6896
:102D5000DB6803F04003402B07D17B681B686FF0F2
:102D600040021A61786800F038F87B681B681B69BC
:102D700003F02003202B0ED17B681B68DB6803F077
:102D80002003202B07D17B681B686FF020021A619B
:102D9000786800F0CDF800BF0837BD4680BD80B42C
:102DA00083B000AF786000BF0C37BD465DF8047B90
:102DB000704780B483B000AF786000BF0C37BD4669
:102DC0005DF8047B704780B483B000AF786000BFCB
:102DD0000C37BD465DF8047B704780B483B000AF0C
:102DE000786000BF0C37BD465DF8047B704700007B
:102DF00080B485B000AF786039607B681B68FB6089
:102E00007B68404A934213D07B68B3F1804F0FD068
:102E10007B683D4A93420BD07B683C4A934207D083
:102E20007B683B4A934203D07B683A4A934208D17D
:102E3000FB6823F07003FB603B685B68FA68134330
:102E4000FB607B682F4A93422BD07B68B3F1804FA5
:102E500027D07B682C4A934223D07B682B4A93422D
:102E60001FD07B682A4A93421BD07B68294A934231
:102E700017D07B68284A934213D07B68274A934235
:102E80000FD07B68264A93420BD07B68254A934239
:102E900007D07B68244A934203D07B68234A93423D
:102EA00008D1FB6823F44073FB603B68DB68FA6879
:102EB0001343FB60FB6823F080023B685B691343AC
:102EC000FB607B68FA681A603B689A687B68DA6224
:102ED0003B681A687B689A627B680A4A934203D00F
:102EE0007B680C4A934203D13B681A697B681A637A
:102EF0007B6801225A6100BF1437BD465DF8047B30
:102F0000704700BF0000014000040040000800407E
:102F1000000C00400004014000400140004401401A
:102F20000048014000180040001C00400020004004
:102F300080B483B000AF786000BF0C37BD465DF849
:102F4000047B704780B483B000AF786000BF0C375B
:102F5000BD465DF8047B704780B582B000AF7860F5
:102F60007B68002B01D101233FE07B6893F8393067
:102F7000DBB2002B06D17B68002283F8382078680A
:102F800005F03CFA7B68242283F839207B681B68B3
:102F90007A681268D26822F40052DA60786800F029
:102FA000D5FB7B681B687A681268126922F490422C
:102FB0001A617B681B687A681268526922F02A02DB
:102FC0005A617B681B687A681268D26842F40052C2
:102FD000DA607B680022DA637B68202283F839207C
:102FE0007B68202283F83A20002318460837BD4624
:102FF00080BD80B588B002AFF860B9603B60134611
:10300000FB8000237B61FB6893F83930DBB2202B17
:1030100040F08280BB68002B02D0FB88002B01D1DE
:1030200001237AE0FB6893F83830012B01D10223A9
:1030300073E0FB68012283F83820FB680022DA6322
:10304000FB68212283F83920FEF708F87861FB68D5
:10305000FA889A84FB68FA88DA8441E0FB68DB8CA2
:103060009BB2013B9AB2FB68DA84FB689B68B3F5BC
:10307000805F21D13B6800937B6900228021F86842
:1030800000F0FAF90346002B01D0032345E0BB68AA
:103090003B61FB681B683A691288C2F308025A60F8
:1030A000FB681B69002B03D1BB680233BB6017E0D0
:1030B000BB680133BB6013E03B6800937B6900226F
:1030C0008021F86800F0D8F90346002B01D00323D3
:1030D00023E0FB681A68BB68591CB9601B78536011
:1030E000FB68DB8C9BB2002BB8D13B6800937B69FB
:1030F00000224021F86800F0BFF90346002B01D000
:1031000003230AE0FB68202283F83920FB680022B1
:1031100083F83820002300E0022318461837BD4604
:1031200080BD80B485B000AFF860B9601346FB8005
:10313000FB6893F83930DBB2202B30D1BB68002B11
:1031400002D0FB88002B01D1012329E0FB6893F812
:103150003830012B01D1022322E0FB68012283F8E1
:103160003820FB68BA681A62FB68FA889A84FB68A0
:10317000FA88DA84FB680022DA63FB68212283F88C
:103180003920FB68002283F83820FB681B68FA6846
:103190001268D26842F08002DA60002300E0022365
:1031A00018461437BD465DF8047B704780B485B07F
:1031B00000AFF860B9601346FB80FB6893F83A30C3
:1031C000DBB2202B40D1BB68002B02D0FB88002B48
:1031D00001D1012339E0FB6893F83830012B01D18C
:1031E000022332E0FB68012283F83820FB68BA68CA
:1031F0009A62FB68FA889A85FB68FA88DA85FB6828
:103200000022DA63FB68222283F83A20FB6800225E
:1032100083F83820FB681B68FA681268D26842F4A9
:103220008072DA60FB681B68FA681268526942F0C3
:1032300001025A61FB681B68FA681268D26842F0A2
:103240002002DA60002300E0022318461437BD464E
:103250005DF8047B7047000080B588B000AF7860EF
:103260007B681B681B68FB617B681B68DB68BB6154
:103270007B681B685B697B6100233B610023FB600B
:10328000FB6903F00F033B613B69002B0DD1FB6928
:1032900003F02003002B08D0BB6903F02003002BB0
:1032A00003D0786800F0D1F9CCE03B69002B00F046
:1032B000AB807B6903F00103002B05D1BB6903F4EC
:1032C0009073002B00F0A080FB6903F00103002B3A
:1032D0000AD0BB6903F48073002B05D07B68DB6BDD
:1032E00043F001027B68DA63FB6903F00403002BFF
:1032F0000AD07B6903F00103002B05D07B68DB6BF0
:1033000043F002027B68DA63FB6903F00203002BDF
:103310000AD07B6903F00103002B05D07B68DB6BCF
:1033200043F004027B68DA63FB6903F00803002BB7
:103330000AD07B6903F00103002B05D07B68DB6BAF
:1033400043F008027B68DA637B68DB6B002B78D084
:10335000FB6903F02003002B07D0BB6903F02003B7
:10336000002B02D0786800F070F97B681B685B69FD
:1033700003F04003402B0CBF01230023DBB2FB60B2
:103380007B68DB6B03F00803002B02D1FB68002B8A
:1033900031D0786800F0BAF87B681B685B6903F08D
:1033A0004003402B23D17B681B687A6812685269FE
:1033B00022F040025A617B685B6B002B13D07B6864
:1033C0005B6B224A1A657B685B6B1846FDF770FFE2
:1033D0000346002B16D07B685B6B1B6D7A68526BC3
:1033E000104698470EE0786800F03CF80AE07868EC
:1033F00000F038F806E0786800F034F87B680022C6
:10340000DA631EE000BF1CE0FB6903F08003002BC1
:1034100008D0BB6903F08003002B03D0786800F06C
:10342000A7F80FE0FB6903F04003002B0AD0BB694B
:1034300003F04003002B05D0786800F0EEF800BFE1
:1034400000E000BF2037BD4680BD00BF4935000801
:1034500080B483B000AF786000BF0C37BD465DF824
:10346000047B704780B483B000AF786000BF0C3736
:10347000BD465DF8047B704780B584B000AFF8604E
:10348000B9603B601346FB712CE0BB69B3F1FF3FB1
:1034900028D0BB69002B07D0FDF7E0FD02463B6852
:1034A000D21ABB699A421DD9FB681B68FA68126878
:1034B000D26822F4D072DA60FB681B68FA6812687E
:1034C000526922F001025A61FB68202283F83920F8
:1034D000FB68202283F83A20FB68002283F838201A
:1034E00003230FE0FB681B681A68BB681A40BB68BF
:1034F0009A420CBF01230023DBB21A46FB799A42A1
:10350000C3D0002318461037BD4680BD80B483B0B9
:1035100000AF78607B681B687A681268D26822F412
:103520009072DA607B681B687A681268526922F0D0
:1035300001025A617B68202283F83A2000BF0C37D1
:10354000BD465DF8047B704780B584B000AF7860FD
:103550007B689B6BFB60FB680022DA85FB680022BE
:10356000DA84F868FFF77EFF00BF1037BD4680BDE4
:1035700080B485B000AF78607B6893F83930DBB2F7
:10358000212B43D17B689B68B3F5805F19D17B68A1
:103590001B6AFB607B681B68FA681288C2F308022A
:1035A0005A607B681B69002B05D17B681B6A9A1CDB
:1035B0007B681A620EE07B681B6A5A1C7B681A6281
:1035C00008E07B681A687B681B6A581C7968086287
:1035D0001B7853607B68DB8C9BB2013B9BB27A68A3
:1035E0001946D184002B0FD17B681B687A6812685A
:1035F000D26822F08002DA607B681B687A68126801
:10360000D26842F04002DA60002300E0022318464C
:103610001437BD465DF8047B704780B582B000AFBB
:1036200078607B681B687A681268D26822F0400272
:10363000DA607B68202283F839207868FFF708FF7A
:10364000002318460837BD4680BD80B584B000AF62
:1036500078607B6893F83A30DBB2222B71D17B68BB
:103660009B68B3F5805F23D17B689B6AFB607B68B6
:103670001B69002B0ED17B681B685B689BB2C3F390
:1036800008039AB2FB681A807B689B6A9A1C7B6865
:103690009A6229E07B681B685B689BB2DBB29AB2D6
:1036A000FB681A807B689B6A5A1C7B689A621BE0E5
:1036B0007B681B69002B0AD17B689B6A591C7A685E
:1036C00091627A6812685268D2B21A700CE07B6814
:1036D0009B6A591C7A6891627A6812685268D2B201
:1036E00002F07F02D2B21A707B68DB8D9BB2013B85
:1036F0009BB27A681946D185002B20D17B681B6864
:103700007A681268D26822F02002DA607B681B684F
:103710007A681268D26822F48072DA607B681B686B
:103720007A681268526922F001025A617B6820228D
:1037300083F83A20786804F0B1FE002302E0002309
:1037400000E0022318461037BD4680BDF0B585B0B5
:1037500000AF78607B681B687A681268126922F48F
:1037600040517A68D2680A431A617B689A687B681C
:103770001B691A437B685B691A437B68DB691343E7
:10378000FB607B681A687B681B68DB6823F4164360
:1037900023F00C03F9680B43D3607B681B687A68DD
:1037A0001268526922F440717A6892690A435A6138
:1037B0007B68DB69B3F5004F40F0E4807B681B68F1
:1037C000AB4A934204D07B681B68AA4A93426CD1EF
:1037D0007B681C68FEF7F8FB024613469B00134407
:1037E0009A001A447B685B685B00B2FBF3F3A24A61
:1037F000A2FB03235B091D01FEF7E6FB024613460D
:103800009B0013449A001A447B685B685B00B2FB20
:10381000F3F6FEF7D9FB024613469B0013449A00C9
:103820001A447B685B685B00B2FBF3F3924AA2FB2D
:1038300003235B09642202FB03F3F31ADB00323338
:103840008D4AA2FB03235B095B0003F4F8731D445C
:10385000FEF7BAFB024613469B0013449A001A4433
:103860007B685B685B00B2FBF3F6FEF7ADFB0246DC
:1038700013469B0013449A001A447B685B685B0004
:10388000B2FBF3F37C4AA2FB03235B09642202FB35
:1038900003F3F31ADB003233774AA2FB03235B09FD
:1038A00003F007032B44A36054E17B681C68FEF718
:1038B00077FB024613469B0013449A001A447B6828
:1038C0005B685B00B2FBF3F36B4AA2FB03235B096B
:1038D0001D01FEF765FB024613469B0013449A0048
:1038E0001A447B685B685B00B2FBF3F6FEF758FB9B
:1038F000024613469B0013449A001A447B685B6897
:103900005B00B2FBF3F35C4AA2FB03235B09642276
:1039100002FB03F3F31ADB003233574AA2FB032303
:103920005B095B0003F4F8731D44FEF739FB0246A4
:1039300013469B0013449A001A447B685B685B0043
:10394000B2FBF3F6FEF72CFB024613469B00134432
:103950009A001A447B685B685B00B2FBF3F3464A4B
:10396000A2FB03235B09642202FB03F3F31ADB00CF
:103970003233414AA2FB03235B0903F007032B44C4
:10398000A360E7E07B681B68394A934204D07B68F8
:103990001B68384A934271D17B681C68FEF714FBA0
:1039A000024613469B0013449A001A447B685B68E6
:1039B0009B00B2FBF3F3304AA2FB03235B091D011A
:1039C000FEF702FB024613469B0013449A001A447A
:1039D0007B685B689B00B2FBF3F6FEF7F5FA0246E4
:1039E00013469B0013449A001A447B685B689B0053
:1039F000B2FBF3F3204AA2FB03235B09642202FB20
:103A000003F3F31A1B0132331B4AA2FB03235B09A6
:103A100003F0F0031D44FEF7D7FA024613469B005D
:103A200013449A001A447B685B689B00B2FBF3F670
:103A3000FEF7CAFA024613469B0013449A001A4442
:103A40007B685B689B00B2FBF3F30B4AA2FB03238A
:103A50005B09642202FB03F3F31A1B013233064AAB
:103A6000A2FB03235B0903F00F032B44A36071E067
:103A700000100140001401401F85EB517B681C6859
:103A8000FEF78EFA024613469B0013449A001A442E
:103A90007B685B689B00B2FBF3F3304AA2FB032315
:103AA0005B091D01FEF77CFA024613469B00134496
:103AB0009A001A447B685B689B00B2FBF3F6FEF742
:103AC0006FFA024613469B0013449A001A447B681F
:103AD0005B689B00B2FBF3F3204AA2FB03235B0964
:103AE000642202FB03F3F31A1B0132331B4AA2FBCD
:103AF00003235B0903F0F0031D44FEF751FA02466D
:103B000013469B0013449A001A447B685B689B0031
:103B1000B2FBF3F6FEF744FA024613469B00134449
:103B20009A001A447B685B689B00B2FBF3F30B4A74
:103B3000A2FB03235B09642202FB03F3F31A1B01BC
:103B40003233064AA2FB03235B0903F00F032B4425
:103B5000A360FFE700BF1437BD46F0BD1F85EB51E2
:103B600080B485B000AF786039600023FB603B68AB
:103B70001A687B6853F82230FB60FA68204B1340C8
:103B8000FB603B685A683B689B681A433B68DB688C
:103B90001A433B681B691A433B685B691A433B68DD
:103BA0009B691A433B68DB691A433B681B6A1A43EB
:103BB0003B685B6A1A433B689B6A1A433B68DB6A53
:103BC0001A433B68DB6B1A433B681B6B1343FA6871
:103BD0001343FB603B689B68082B03D1FB6843F0F1
:103BE0004003FB603B681A687B68F96843F8221061
:103BF000002318461437BD465DF8047B704700BFAC
:103C00008000F0FF80B487B000AFF860B9607A60E0
:103C100000237B617B685A1CFB6853F822307B6170
:103C20007B6903F040437B61BB681A68BB685B68D3
:103C30001B011A43BB689B681B021A43BB68DB6805
:103C40001B041A43BB681B69013B1B051A43BB6875
:103C50005B69023B1B061A43BB689B6913437A6985
:103C600013437B617B685A1CFB68796943F8221017
:103C7000002318461C37BD465DF8047B70470000E2
:103C800080B487B000AFF860B9607A603B60002311
:103C90007B613B68B3F5804F22D1FB687A6853F8AB
:103CA00022307B617A69154B13407B61BB681A68CF
:103CB000BB685B681B011A43BB689B681B021A4305
:103CC000BB68DB681B041A43BB689B6913437A69B2
:103CD00013437B61FB687A68796943F8221005E039
:103CE000FB687A686FF0704143F822100023184691
:103CF0001C37BD465DF8047B704700BF0000F0CF65
:103D000080B485B000AFEFF30583BB60BB68002BC8
:103D10000FD1EFF310837B607B68002B09D1114B2F
:103D20001B68022B09D1EFF311833B603B68002B2A
:103D300003D06FF00503FB600CE00A4B1B68002BFF
:103D400005D1084B01221A600023FB6002E04FF00E
:103D5000FF33FB60FB6818461437BD465DF8047BF3
:103D6000704700BF1407002080B584B000AFEFF3A8
:103D70000583BB60BB68002B0FD1EFF310837B6022
:103D80007B68002B09D1114B1B68022B09D1EFF383
:103D900011833B603B68002B03D06FF00503FB6091
:103DA0000EE00A4B1B68012B07D1084B02221A6058
:103DB00001F054FF0023FB6002E04FF0FF33FB6093
:103DC000FB6818461037BD4680BD00BF14070020B1
:103DD00080B592B004AFF860B9607A6000237B616F
:103DE000EFF305837B627B6A002B40F09480EFF356
:103DF00010833B623B6A002B40F08D80484B1B6870
:103E0000022B06D1EFF31183FB61FB69002B40F01D
:103E10008280FB68002B7ED080233B631823FB62EB
:103E20000023FB7607F11B037B634FF0FF33BB627C
:103E30007B68002B45D07B681B68002B02D07B6819
:103E40001B687B637B689B69002B02D07B689B6946
:103E5000FB62FB6A002B08D0FB6A382B05D87B6815
:103E60005B6803F00103002B01D0002354E07B6862
:103E70005B69002B03D07B685B699B083B637B68B5
:103E80009B68002B0ED07B68DB685B2B0AD97B68B4
:103E90001B69002B06D07B685B69002B02D00123D5
:103EA000BB6210E07B689B68002B0CD17B68DB68F1
:103EB000002B08D17B681B69002B04D10023BB6257
:103EC00001E00023BB62BB6A012B10D17B681B6938
:103ED0007A68926802920193FB6A0093BB683A6B1E
:103EE000796BF86801F026FD03467B6113E0BB6A3D
:103EF000002B10D13B6B9AB207F114030193FB6ABC
:103F00000093BB68796BF86801F06DFD0346012BE7
:103F100001D000237B617B6918463837BD4680BDE0
:103F20001407002080B58CB002AFF860B9607A60E9
:103F300000237B62EFF30583BB61BB69002B40F07C
:103F40008880EFF310837B617B69002B40F08180D8
:103F5000424B1B68022B05D1EFF311833B613B6998
:103F6000002B76D1FB68002B73D0BA68FB689A42AD
:103F70006FD84FF0FF333B627B68002B15D07B6816
:103F80009B68002B06D07B68DB684F2B02D901238E
:103F90003B620CE07B689B68002B08D17B68DB6888
:103FA000002B04D100233B6201E000233B623B6A0B
:103FB000B3F1FF3F4DD0FB68012B29D13B6A012BA8
:103FC0000BD17B689A6803230093134600220021DB
:103FD000012000F0ABFD786205E003220021012002
:103FE00000F016FE78627B6A002B22D0BB68002BA3
:103FF0001FD0002300220021786A00F0CFFE034684
:10400000012B16D0786A01F0C5FA00237B6210E01C
:104010003B6A012B08D17B689B681A46B968F8682F
:1040200000F056FE786204E0B968F86800F085FE9A
:1040300078627B6A002B0CD07B68002B03D07B68F6
:104040001B68FB6101E00023FB61F969786A01F0FC
:10405000EBFB7B6A18462837BD4680BD140700205D
:1040600080B485B000AFF860B9607A60FB68074A39
:104070001A60BB68064A1A607B6880221A6000BF1B
:104080001437BD465DF8047B704700BF1807002059
:104090007407002080B485B000AFF860B9607A6022
:1040A000FB68074A1A60BB68064A1A607B684FF4CF
:1040B00080721A6000BF1437BD465DF8047B7047FC
:1040C00074090020D009002080B483B000AF78606C
:1040D0007B6803F108027B685A607B684FF0FF320F
:1040E0009A607B6803F108027B68DA607B6803F101
:1040F00008027B681A617B6800221A6000BF0C37D7
:10410000BD465DF8047B704780B483B000AF786033
:104110007B6800221A6100BF0C37BD465DF8047B46
:10412000704780B485B000AF786039607B685B68A9
:10413000FB603B68FA685A60FB689A683B689A6063
:10414000FB689B683A685A60FB683A689A603B680B
:104150007A681A617B681B685A1C7B681A6000BF0A
:104160001437BD465DF8047B704780B485B000AF5E
:10417000786039603B681B68BB60BB68B3F1FF3F88
:1041800003D17B681B69FB600CE07B680833FB6034
:1041900002E0FB685B68FB60FB685B681A68BB68F1
:1041A0009A42F6D9FB685A683B685A603B685B687C
:1041B0003A689A603B68FA689A60FB683A685A60A5
:1041C0003B687A681A617B681B685A1C7B681A60B6
:1041D00000BF1437BD465DF8047B704780B485B0DE
:1041E00000AF78607B681B69FB607B685B687A68FE
:1041F00092689A607B689B687A6852685A60FB682C
:104200005A687B689A4203D17B689A68FB685A6057
:104210007B6800221A61FB681B685A1EFB681A60E3
:10422000FB681B6818461437BD465DF8047B704771
:1042300080B485B000AFF860B9607A60FB68043B79
:10424000FB60FB684FF080721A60FB68043BFB6008
:10425000BB6823F00102FB681A60FB68043BFB604B
:104260000C4AFB681A60FB68143BFB607A68FB68C9
:104270001A60FB68043BFB60FB686FF002021A6087
:10428000FB68203BFB60FB6818461437BD465DF8B1
:10429000047B70479942000880B485B000AF0023CA
:1042A0007B60114B1B68B3F1FF3F09D04FF0500307
:1042B00083F31188BFF36F8FBFF34F8FFB60FEE76F
:1042C0004FF0500383F31188BFF36F8FBFF34F8F0D
:1042D000BB6000BF7B68002BFCD000BF1437BD461D
:1042E0005DF8047B704700BF040000200000000060
:1042F000074B19680868B0E8F04F80F30988BFF3EE
:104300006F8F4FF0000080F311887047AFF300808B
:10431000F049002000BF00BF08480068006880F333
:1043200008884FF0000080F3148862B661B6BFF3CE
:104330004F8FBFF36F8F00DF00BF00BF08ED00E0BD
:1043400080B586B000AF444B1B68444A934209D104
:104350004FF0500383F31188BFF36F8FBFF34F8F7C
:104360003B61FEE73C4B1B683D4A934209D14FF04D
:10437000500383F31188BFF36F8FBFF34F8FFB6040
:10438000FEE7384B7B617B691B78DBB27B607B6926
:10439000FF221A707B691B78DBB2FB70FB78DBB203
:1043A00003F05003DAB2304B1A70304B07221A6018
:1043B00009E02E4B1B68013B2C4A1360FB78DBB2F3
:1043C0005B00DBB2FB70FB78DBB203F08003802B79
:1043D000EFD0264B1B68C3F10703042B09D04FF025
:1043E000500383F31188BFF36F8FBFF34F8FBB6010
:1043F000FEE71E4B1B681B021C4A13601B4B1B680D
:1044000003F4E063194A13607B68DAB27B691A70BF
:10441000174A174B1B6843F470031360144A144B7C
:104420001B6843F07043136000F0D6F8114B002274
:104430001A6000F0F5F8104A0F4B1B6843F0404338
:104440001360FFF769FF01F0E5FDFFF725FF00238B
:1044500018461837BD4680BD00ED00E071C20F411F
:1044600070C20F4100E400E0D00D0020D40D002008
:1044700020ED00E00400002034EF00E080B483B0C1
:1044800000AF4FF0500383F31188BFF36F8FBFF37A
:104490004F8F7B600E4B1B6801330D4A13600C4B32
:1044A0001B68012B0ED10B4B1B68DBB2002B09D014
:1044B0004FF0500383F31188BFF36F8FBFF34F8F1B
:1044C0003B60FEE700BF0C37BD465DF8047B7047DC
:1044D0000400002004ED00E080B483B000AF114B75
:1044E0001B68002B09D14FF0500383F31188BFF3F1
:1044F0006F8FBFF34F8F7B60FEE70A4B1B68013B5A
:10450000084A1360074B1B68002B04D100233B6053
:104510003B6883F3118800BF0C37BD465DF8047B10
:10452000704700BF040000200000000000000000F1
:10453000EFF30980BFF36F8F154B1A681EF0100F51
:1045400008BF20ED108A20E9F04F10602DE9090026
:104550004FF0500080F31188BFF34F8FBFF36F8F80
:1045600001F058FD4FF0000080F3118809BC196874
:104570000868B0E8F04F1EF0100F08BFB0EC108ACA
:1045800080F30988BFF36F8F704700BFAFF30080DF
:10459000F049002000BF00BF80B582B000AF4FF0EF
:1045A000500383F31188BFF36F8FBFF34F8F7B608E
:1045B00001F072FC0346002B03D0064B4FF08052F3
:1045C0001A6000233B603B6883F3118800BF083703
:1045D000BD4680BD04ED00E080B400AF0B4B00226F
:1045E0001A600B4B00221A600A4A0B4B1B680B49DE
:1045F000A1FB03139B09013B1360044B07221A60C4
:1046000000BFBD465DF8047B704700BF10E000E0CE
:1046100018E000E014E000E020000020D34D62101C
:10462000DFF80C00016841F470010160704700BFC1
:1046300088ED00E080B485B000AFEFF30583FB6048
:10464000FB680F2B13D9164AFB6813441B78FB72C7
:10465000144B1B78FA7A9A4209D24FF0500383F335
:104660001188BFF36F8FBFF34F8F7B60FEE70E4B58
:104670001B6803F4E0620D4B1B689A4209D94FF0A6
:10468000500383F31188BFF36F8FBFF34F8F3B60ED
:10469000FEE700BF1437BD465DF8047B704700BFDE
:1046A000F0E300E0D00D00200CED00E0D40D002080
:1046B00080B58AB000AF78600023FB6101F032FB67
:1046C000574B1B68002B01D100F00CF9554B1A68B1
:1046D0007B681340002B40F08C807B68002B1CD043
:1046E00008227B6813447B607B6803F00703002B80
:1046F00013D07B6823F0070308337B607B6803F0EB
:104700000703002B09D04FF0500383F31188BFF348
:104710006F8FBFF34F8F7B61FEE77B68002B68D004
:10472000414B1B687A689A4263D8404B3B623F4BCF
:104730001B687B6204E07B6A3B627B6A1B687B626E
:104740007B6A5A687B689A4203D27B6A1B68002B9B
:10475000F1D1334B1B687A6A9A424AD03B6A1B6894
:1047600008221344FB617B6A1A683B6A1A607B6A01
:104770005A687B68D21A08235B009A421ED97A6A6B
:104780007B681344BB61BB6903F00703002B09D0AE
:104790004FF0500383F31188BFF36F8FBFF34F8F38
:1047A0003B61FEE77B6A5A687B68D21ABB695A6034
:1047B0007B6A7A685A60B86900F0F6F81A4B1A6892
:1047C0007B6A5B68D31A184A1360174B1A68184B38
:1047D0001B689A4203D2144B1B68154A13607B6A0C
:1047E0005A68104B1B681A437B6A5A607B6A002226
:1047F0001A6001F0A5FAFB6903F00703002B09D04A
:104800004FF0500383F31188BFF36F8FBFF34F8FC7
:10481000FB60FEE7FB6918462837BD4680BD00BF38
:10482000E0490020EC490020E4490020D84900205C
:10483000E849002080B586B000AF78607B687B6176
:104840007B68002B46D008235B427A6913447B6166
:104850007B693B613B695A68204B1B681340002B06
:1048600009D14FF0500383F31188BFF36F8FBFF36B
:104870004F8FFB60FEE73B691B68002B09D04FF0B0
:10488000500383F31188BFF36F8FBFF34F8FBB606B
:10489000FEE73B695A68114B1B681340002B19D087
:1048A0003B691B68002B15D13B695A680B4B1B6891
:1048B000DB431A403B695A6001F034FA3B695A689D
:1048C000074B1B681344064A1360386900F06CF804
:1048D00001F036FA00BF1837BD4680BDEC49002014
:1048E000E449002080B485B000AF4FF47053BB6042
:1048F000274BFB60FB6803F00703002B0CD0FB6821
:104900000733FB60FB6823F00703FB60BA68FB68B2
:10491000D31A1F4A1344BB60FB687B601D4A7B6847
:1049200013601C4B00225A607A68BB681344FB601A
:104930000822FB689B1AFB60FB6823F00703FB60FF
:10494000FB68154A1360144B1B6800225A60124B17
:104950001B6800221A607B683B603B68FA68D21AC9
:104960003B685A600C4B1A683B681A603B685B688E
:104970000A4A13603B685B68094A1360094B4FF0B1
:1049800000421A6000BF1437BD465DF8047B7047D3
:10499000D80D0020D8490020E0490020E849002037
:1049A000E4490020EC49002080B485B000AF786075
:1049B000284BFB6002E0FB681B68FB60FB681A6821
:1049C0007B689A42F7D3FB68BB60FB685B68BA6898
:1049D0001A447B689A4208D1FB685A687B685B6816
:1049E0001A44FB685A60FB687B607B68BB607B682D
:1049F0005B68BA681A44FB681B689A4218D1FB6866
:104A00001A68154B1B689A420DD07B685A68FB6880
:104A10001B685B681A447B685A60FB681B681A68ED
:104A20007B681A6008E00C4B1A687B681A6003E028
:104A3000FB681A687B681A60FA687B689A4202D041
:104A4000FB687A681A6000BF1437BD465DF8047BC6
:104A5000704700BFD8490020E049002080B584B0ED
:104A600000AF786039607B68FB60FB68002B09D180
:104A70004FF0500383F31188BFF36F8FBFF34F8F55
:104A8000BB60FEE7FFF7FAFCFB681A68FB68DB6BAC
:104A9000F968096C01FB03F31A44FB685A60FB6870
:104AA00000229A63FB681A68FB689A60FB681A68C0
:104AB000FB68DB6B013BF968096C01FB03F31A44EB
:104AC000FB68DA60FB68FF2283F84420FB68FF2262
:104AD00083F845203B68002B14D1FB681B69002B31
:104AE0001AD0FB681033184601F03EFB0346002B3A
:104AF00012D00D4B4FF080521A60BFF34F8FBFF3AF
:104B00006F8F09E0FB6810331846FFF7DDFAFB688A
:104B100024331846FFF7D8FAFFF7DEFC01231846C6
:104B20001037BD4680BD00BF04ED00E080B58EB0FB
:104B300002AFF860B9607A603B60FB68002B09D176
:104B40004FF0500383F31188BFF36F8FBFF34F8F84
:104B5000BB62FEE73B68002B09D14FF0500383F3A3
:104B60001188BFF36F8FBFF34F8F7B62FEE77B68C7
:104B7000002B02D0BB68002B01D0012300E00023F2
:104B8000002B09D14FF0500383F31188BFF36F8FCF
:104B9000BFF34F8F3B62FEE77B68002B02D1BB68FF
:104BA000002B01D1012300E00023002B09D14FF09D
:104BB000500383F31188BFF36F8FBFF34F8FFB61F7
:104BC000FEE750237B617B69502B09D04FF05003E7
:104BD00083F31188BFF36F8FBFF34F8FBB61FEE785
:104BE0003B68FB62FB6A002B0DD0FB6A012283F855
:104BF000462097F83820FB6A009313467A68B96814
:104C0000F86800F042F8FB6A18463037BD4680BDB0
:104C100080B58AB002AFF860B9601346FB71FB68DB
:104C2000002B09D14FF0500383F31188BFF36F8F2E
:104C3000BFF34F8F3B61FEE7BB68002B02D100231F
:104C4000FB6104E0FB68BA6802FB03F3FB61FB69EC
:104C500050331846FFF72CFDB861BB69002B0FD00D
:104C6000BB6950337B61BB69002283F84620FA7927
:104C7000BB69009313467A69B968F86800F005F8D3
:104C8000BB6918462037BD4680BD80B584B000AFF3
:104C9000F860B9607A60FB70BB68002B03D1BB6918
:104CA000BA691A6002E0BB697A681A60BB69FA687F
:104CB000DA63BB69BA681A640121B869FFF7CEFEEE
:104CC000BB69FA7883F84C2000BF1037BD4680BD21
:104CD00080B58AB002AFF860B9607A60FB68002BDB
:104CE00009D14FF0500383F31188BFF36F8FBFF3E7
:104CF0004F8FBB61FEE7BA68FB689A4209D94FF053
:104D0000500383F31188BFF36F8FBFF34F8F7B6125
:104D1000FEE7022300937B6800220021F868FFF77A
:104D200005FFF861FB69002B02D0FB69BA689A6342
:104D3000FB6918462037BD4680BD80B586B000AF00
:104D4000786039607B68002B09D14FF0500383F302
:104D50001188BFF36F8FBFF34F8F3B61FEE73A6857
:104D60007B689A4209D94FF0500383F31188BFF34F
:104D70006F8FBFF34F8FFB60FEE702220021786840
:104D8000FFF746FF78617B69002B02D07B693A68A8
:104D90009A637B6918461837BD4680BD80B58EB0D2
:104DA00000AFF860B9607A603B6000237B63FB680A
:104DB0003B633B6B002B09D14FF0500383F3118809
:104DC000BFF36F8FBFF34F8FBB62FEE7BB68002B53
:104DD00003D13B6B1B6C002B01D1012300E00023AE
:104DE000002B09D14FF0500383F31188BFF36F8F6D
:104DF000BFF34F8F7B62FEE73B68022B03D13B6B17
:104E0000DB6B012B01D1012300E00023002B09D132
:104E10004FF0500383F31188BFF36F8FBFF34F8FB1
:104E20003B62FEE701F05CFB0346002B02D17B688E
:104E3000002B01D1012300E00023002B09D14FF00A
:104E4000500383F31188BFF36F8FBFF34F8FFB6164
:104E5000FEE7FFF713FB3B6B9A6B3B6BDB6B9A42F6
:104E600002D33B68022B29D13A68B968386B00F04D
:104E7000CBFBF8623B6B5B6A002B10D03B6B24339F
:104E8000184601F071F90346002B13D03F4B4FF049
:104E900080521A60BFF34F8FBFF36F8F0AE0FB6A37
:104EA000002B07D0394B4FF080521A60BFF34F8F61
:104EB000BFF36F8FFFF710FB012363E07B68002BCC
:104EC00003D1FFF709FB00235CE07B6B002B06D1CD
:104ED00007F11403184601F0A9F901237B63FFF7DA
:104EE000FBFA00F01FFFFFF7C9FA3B6B93F8443061
:104EF0005BB2B3F1FF3F03D13B6B002283F8442048
:104F00003B6B93F845305BB2B3F1FF3F03D13B6B92
:104F1000002283F84520FFF7DFFA3A1D07F114035A
:104F20001146184601F098F90346002B24D1386B3E
:104F300000F062FC0346002B18D03B6B10337A68FC
:104F40001146184601F0C2F8386B00F0EDFB00F096
:104F5000F7FE0346002B7FF47CAF0C4B4FF08052E2
:104F60001A60BFF34F8FBFF36F8F72E7386B00F09B
:104F7000DBFB00F0E5FE6CE7386B00F0D5FB00F0E2
:104F8000DFFE002318463837BD4680BD04ED00E043
:104F900080B58EB000AFF860B9607A603B60FB68A6
:104FA0003B633B6B002B09D14FF0500383F3118817
:104FB000BFF36F8FBFF34F8F7B62FEE7BB68002BA1
:104FC00003D13B6B1B6C002B01D1012300E00023BC
:104FD000002B09D14FF0500383F31188BFF36F8F7B
:104FE000BFF34F8F3B62FEE73B68022B03D13B6B65
:104FF000DB6B012B01D1012300E00023002B09D141
:105000004FF0500383F31188BFF36F8FBFF34F8FBF
:10501000FB61FEE7FFF70EFBEFF311824FF0500349
:1050200083F31188BFF36F8FBFF34F8FBA617B613A
:10503000BB69FB623B6B9A6B3B6BDB6B9A4202D3A7
:105040003B68022B2CD13B6B93F8453087F82B3013
:105050003A68B968386B00F0D7FA97F92B30B3F19A
:10506000FF3F12D13B6B5B6A002B16D03B6B2433A6
:10507000184601F079F80346002B0ED07B68002B10
:105080000BD07B6801221A6007E097F82B300133C0
:10509000DBB25AB23B6B83F8452001237B6301E00E
:1050A00000237B63FB6A3B613B6983F311887B6B65
:1050B00018463837BD4680BD80B58EB000AF7860E9
:1050C00039607B683B633B6B002B09D14FF0500389
:1050D00083F31188BFF36F8FBFF34F8F3B62FEE7FF
:1050E0003B6B1B6C002B09D04FF0500383F31188EE
:1050F000BFF36F8FBFF34F8FFB61FEE73B6B1B6806
:10510000002B03D13B6B5B68002B01D1012300E036
:105110000023002B09D14FF0500383F31188BFF314
:105120006F8FBFF34F8FBB61FEE7FFF783FAEFF39B
:1051300011824FF0500383F31188BFF36F8FBFF3D9
:105140004F8F7A613B617B69FB623B6B9B6BBB6200
:105150003B6BDA6BBB6A9A422BD93B6B93F84530B9
:1051600087F82730BB6A5A1C3B6B9A6397F9273044
:10517000B3F1FF3F12D13B6B5B6A002B16D03B6B48
:105180002433184600F0F0FF0346002B0ED03B6896
:10519000002B0BD03B6801221A6007E097F82730FC
:1051A0000133DBB25AB23B6B83F8452001237B63AA
:1051B00001E000237B63FB6AFB60FB6883F31188DB
:1051C0007B6B18463837BD4680BD000080B58CB07B
:1051D00000AFF860B9607A600023FB62FB68BB62D5
:1051E000BB6A002B09D14FF0500383F31188BFF342
:1051F0006F8FBFF34F8F3B62FEE7BB68002B03D17D
:10520000BB6A1B6C002B01D1012300E00023002BA3
:1052100009D14FF0500383F31188BFF36F8FBFF3B1
:105220004F8FFB61FEE701F05BF90346002B02D1D3
:105230007B68002B01D1012300E00023002B09D162
:105240004FF0500383F31188BFF36F8FBFF34F8F7D
:10525000BB61FEE7FFF712F9BB6A9B6B7B627B6A5F
:10526000002B1FD0B968B86A00F038FA7B6A5A1E62
:10527000BB6A9A63BB6A1B69002B0FD0BB6A1033F1
:10528000184600F071FF0346002B07D03C4B4FF04F
:1052900080521A60BFF34F8FBFF36F8FFFF71CF977
:1052A000012369E07B68002B03D1FFF715F9002388
:1052B00062E0FB6A002B06D107F11003184600F0EC
:1052C000B5FF0123FB62FFF707F900F02BFDFFF7A5
:1052D000D5F8BB6A93F844305BB2B3F1FF3F03D11A
:1052E000BB6A002283F84420BB6A93F845305BB266
:1052F000B3F1FF3F03D1BB6A002283F84520FFF7DB
:10530000EBF83A1D07F110031146184600F0A4FF10
:105310000346002B23D1B86A00F058FA0346002B4D
:1053200017D0BB6A24337A681146184600F0CEFEC7
:10533000B86A00F0F9F900F003FD0346002B89D1AB
:105340000F4B4FF080521A60BFF34F8FBFF36F8F38
:1053500080E7B86A00F0E8F900F0F2FC7AE7B86A92
:1053600000F0E2F900F0ECFCB86A00F02FFA034616
:10537000002B3FF46FAF002318463037BD4680BD89
:1053800004ED00E080B58EB000AF78603960002396
:105390007B637B68FB6200233B63FB6A002B09D1C4
:1053A0004FF0500383F31188BFF36F8FBFF34F8F1C
:1053B0003B62FEE7FB6A1B6C002B09D04FF05003E9
:1053C00083F31188BFF36F8FBFF34F8FFB61FEE74D
:1053D00001F086F80346002B02D13B68002B01D177
:1053E000012300E00023002B09D14FF0500383F389
:1053F0001188BFF36F8FBFF34F8FBB61FEE7FFF7DD
:105400003DF8FB6A9B6BBB62BB6A002B24D0BB6A76
:105410005A1EFB6A9A63FB6A1B68002B04D101F0D9
:10542000DBF90246FB6A5A60FB6A1B69002B0FD04E
:10543000FB6A1033184600F097FE0346002B07D096
:10544000534B4FF080521A60BFF34F8FBFF36F8FF3
:10545000FFF742F8012396E03B68002B10D13B6B2D
:10546000002B09D04FF0500383F31188BFF36F8FE7
:10547000BFF34F8F7B61FEE7FFF72EF8002382E03A
:105480007B6B002B06D107F10C03184600F0CEFE13
:1054900001237B63FFF720F800F044FCFEF7EEFFEA
:1054A000FB6A93F844305BB2B3F1FF3F03D1FB6A70
:1054B000002283F84420FB6A93F845305BB2B3F1D5
:1054C000FF3F03D1FB6A002283F84520FFF704F871
:1054D0003A4607F10C031146184600F0BDFE03469C
:1054E000002B32D1F86A00F071F90346002B26D068
:1054F000FB6A1B68002B09D1FEF7C0FFFB6A5B68E3
:10550000184601F00BF83863FEF7E6FFFB6A243318
:105510003A681146184600F0D9FDF86A00F004F91F
:1055200000F00EFC0346002B7FF469AF184B4FF0E0
:1055300080521A60BFF34F8FBFF36F8F5FE7F86A37
:1055400000F0F2F800F0FCFB59E7F86A00F0ECF824
:1055500000F0F6FBF86A00F039F90346002B3FF43F
:105560004EAF3B6B002B0DD0FEF788FFF86A00F0C2
:1055700033F87862FB6A5B68796A184601F0A8F82C
:10558000FEF7AAFF002318463837BD4680BD00BF8E
:1055900004ED00E080B584B000AF78607B68FB600C
:1055A000FB68002B09D14FF0500383F31188BFF340
:1055B0006F8FBFF34F8FBB60FEE7F86800F05CF9B8
:1055C000FB6893F84630002B02D1F868FFF732F9F8
:1055D00000BF1037BD4680BD80B485B000AF786095
:1055E0007B685B6A002B06D07B681B6B1B68C3F172
:1055F0003803FB6001E00023FB60FB6818461437AA
:10560000BD465DF8047B704780B586B000AFF8609A
:10561000B9607A6000237B61FB689B6B3B61FB6830
:105620001B6C002B0DD1FB681B68002B4DD1FB6858
:105630005B68184600F0E0FF7861FB6800225A6062
:1056400043E07B68002B19D1FB689868FB681B6CF2
:105650001A46B96808F017F8FB689A68FB681B6C73
:105660001A44FB689A60FB689A68FB685B689A4218
:105670002BD3FB681A68FB689A6026E0FB68D86841
:10568000FB681B6C1A46B96807F0FDFFFB68DA6817
:10569000FB681B6C5B421A44FB68DA60FB68DA68E3
:1056A000FB681B689A4207D2FB685A68FB681B6C50
:1056B0005B421A44FB68DA607B68022B05D13B69C8
:1056C000002B02D03B69013B3B613B695A1CFB68E4
:1056D0009A637B6918461837BD4680BD80B582B095
:1056E00000AF786039607B681B6C002B18D07B683A
:1056F000DA687B681B6C1A447B68DA607B68DA685E
:105700007B685B689A4203D37B681A687B68DA60BF
:105710007B68D9687B681B6C1A46386807F0B3FF52
:1057200000BF0837BD4680BD80B584B000AF78604B
:10573000FEF7A4FE7B6893F84530FB7311E07B68AD
:105740005B6A002B12D07B682433184600F00CFDF6
:105750000346002B01D000F0DFFDFB7B013BDBB2F9
:10576000FB7397F90F30002BE9DC00E000BF7B688A
:10577000FF2283F84520FEF7AFFEFEF77FFE7B6831
:1057800093F84430BB7311E07B681B69002B12D087
:105790007B681033184600F0E7FC0346002B01D06D
:1057A00000F0BAFDBB7B013BDBB2BB7397F90E3057
:1057B000002BE9DC00E000BF7B68FF2283F8442077
:1057C000FEF78AFE00BF1037BD4680BD80B584B0AD
:1057D00000AF7860FEF752FE7B689B6B002B02D116
:1057E0000123FB6001E00023FB60FEF775FEFB6810
:1057F00018461037BD4680BD80B584B000AF7860D4
:10580000FEF73CFE7B689A6B7B68DB6B9A4202D1A9
:105810000123FB6001E00023FB60FEF75DFEFB68F7
:1058200018461037BD4680BD80B485B000AF7860A3
:1058300039600023FB6014E00E4AFB6852F83330F5
:10584000002B0BD10B49FB683A6841F83320094A19
:10585000FB68DB0013447A685A6005E0FB6801339B
:10586000FB60FB68072BE7D900BF1437BD465DF826
:10587000047B70478450002080B485B000AF78600E
:105880000023FB6016E0104AFB68DB0013445A68F3
:105890007B689A420BD10C4AFB68002142F8331016
:1058A000094AFB68DB00134400225A6005E0FB68EC
:1058B0000133FB60FB68072BE5D900BF1437BD46F9
:1058C0005DF8047B704700BF8450002080B586B02F
:1058D00000AFF860B9607A60FB687B61FEF7CEFDCF
:1058E0007B6993F844305BB2B3F1FF3F03D17B692E
:1058F000002283F844207B6993F845305BB2B3F112
:10590000FF3F03D17B69002283F84520FEF7E4FDC9
:105910007B699B6B002B06D17B6924337A68B9685D
:10592000184600F0F7FB7869FFF7FEFE00BF183756
:10593000BD4680BD80B58EB004AFF860B9607A60B6
:105940003B607B6B002B09D14FF0500383F3118830
:10595000BFF36F8FBFF34F8F3B62FEE7BB6B002B34
:1059600009D14FF0500383F31188BFF36F8FBFF35A
:105970004F8FFB61FEE75C233B613B695C2B09D0E9
:105980004FF0500383F31188BFF36F8FBFF34F8F36
:10599000BB61FEE7BB6B002B1ED07B6B002B1BD0CB
:1059A000BB6B7B627B6A7A6B1A637B6A022283F829
:1059B0005920002303937B6A029307F11403019398
:1059C0003B6B00933B687A68B968F86800F050F860
:1059D000786A00F0D3F801E000237B617B69184608
:1059E0002837BD4680BD80B58CB004AFF860B96083
:1059F0003B601346FB80FB889B001846FEF758FE71
:105A000078617B69002B0ED05C20FEF751FEF861B7
:105A1000FB69002B03D0FB697A691A6305E078699A
:105A2000FEF708FF01E00023FB61FB69002B17D0A4
:105A3000FB69002283F85920FA8800230393FB694D
:105A40000293FB6A0193BB6A00933B68B968F868EC
:105A500000F00EF8F86900F091F80123BB6102E054
:105A60004FF0FF33BB61BB6918462037BD4680BD90
:105A700080B588B000AFF860B9607A603B603B6B7E
:105A8000186B7B689B001A46A52107F007FE3B6B4D
:105A90001A6B7B6803F18043013B9B001344BB619D
:105AA000BB6923F00703BB61BB6903F00703002B4D
:105AB00009D04FF0500383F31188BFF36F8FBFF30A
:105AC0004F8F7B61FEE70023FB6112E0BA68FB6940
:105AD000134419783A6BFB69134434330A461A703D
